{
  "_format": "hh-sol-artifact-1",
  "contractName": "FCTToken",
  "sourceName": "contracts/FCTToken.sol",
  "abi": [
    {
      "inputs": [
        {
          "internalType": "string",
          "name": "name",
          "type": "string"
        },
        {
          "internalType": "string",
          "name": "symbol",
          "type": "string"
        }
      ],
      "stateMutability": "nonpayable",
      "type": "constructor"
    },
    {
      "anonymous": false,
      "inputs": [
        {
          "indexed": true,
          "internalType": "address",
          "name": "owner",
          "type": "address"
        },
        {
          "indexed": true,
          "internalType": "address",
          "name": "spender",
          "type": "address"
        },
        {
          "indexed": false,
          "internalType": "uint256",
          "name": "value",
          "type": "uint256"
        }
      ],
      "name": "Approval",
      "type": "event"
    },
    {
      "anonymous": false,
      "inputs": [
        {
          "indexed": true,
          "internalType": "address",
          "name": "from",
          "type": "address"
        },
        {
          "indexed": true,
          "internalType": "address",
          "name": "to",
          "type": "address"
        },
        {
          "indexed": false,
          "internalType": "uint256",
          "name": "value",
          "type": "uint256"
        }
      ],
      "name": "Transfer",
      "type": "event"
    },
    {
      "inputs": [
        {
          "internalType": "address",
          "name": "owner",
          "type": "address"
        },
        {
          "internalType": "address",
          "name": "spender",
          "type": "address"
        }
      ],
      "name": "allowance",
      "outputs": [
        {
          "internalType": "uint256",
          "name": "",
          "type": "uint256"
        }
      ],
      "stateMutability": "view",
      "type": "function"
    },
    {
      "inputs": [
        {
          "internalType": "address",
          "name": "spender",
          "type": "address"
        },
        {
          "internalType": "uint256",
          "name": "amount",
          "type": "uint256"
        }
      ],
      "name": "approve",
      "outputs": [
        {
          "internalType": "bool",
          "name": "",
          "type": "bool"
        }
      ],
      "stateMutability": "nonpayable",
      "type": "function"
    },
    {
      "inputs": [
        {
          "internalType": "address",
          "name": "account",
          "type": "address"
        }
      ],
      "name": "balanceOf",
      "outputs": [
        {
          "internalType": "uint256",
          "name": "",
          "type": "uint256"
        }
      ],
      "stateMutability": "view",
      "type": "function"
    },
    {
      "inputs": [],
      "name": "decimals",
      "outputs": [
        {
          "internalType": "uint8",
          "name": "",
          "type": "uint8"
        }
      ],
      "stateMutability": "view",
      "type": "function"
    },
    {
      "inputs": [
        {
          "internalType": "address",
          "name": "spender",
          "type": "address"
        },
        {
          "internalType": "uint256",
          "name": "subtractedValue",
          "type": "uint256"
        }
      ],
      "name": "decreaseAllowance",
      "outputs": [
        {
          "internalType": "bool",
          "name": "",
          "type": "bool"
        }
      ],
      "stateMutability": "nonpayable",
      "type": "function"
    },
    {
      "inputs": [
        {
          "internalType": "address",
          "name": "recipient",
          "type": "address"
        },
        {
          "internalType": "uint256",
          "name": "amount",
          "type": "uint256"
        }
      ],
      "name": "faucet",
      "outputs": [],
      "stateMutability": "nonpayable",
      "type": "function"
    },
    {
      "inputs": [
        {
          "internalType": "address",
          "name": "spender",
          "type": "address"
        },
        {
          "internalType": "uint256",
          "name": "addedValue",
          "type": "uint256"
        }
      ],
      "name": "increaseAllowance",
      "outputs": [
        {
          "internalType": "bool",
          "name": "",
          "type": "bool"
        }
      ],
      "stateMutability": "nonpayable",
      "type": "function"
    },
    {
      "inputs": [],
      "name": "name",
      "outputs": [
        {
          "internalType": "string",
          "name": "",
          "type": "string"
        }
      ],
      "stateMutability": "view",
      "type": "function"
    },
    {
      "inputs": [],
      "name": "symbol",
      "outputs": [
        {
          "internalType": "string",
          "name": "",
          "type": "string"
        }
      ],
      "stateMutability": "view",
      "type": "function"
    },
    {
      "inputs": [],
      "name": "totalSupply",
      "outputs": [
        {
          "internalType": "uint256",
          "name": "",
          "type": "uint256"
        }
      ],
      "stateMutability": "view",
      "type": "function"
    },
    {
      "inputs": [
        {
          "internalType": "address",
          "name": "to",
          "type": "address"
        },
        {
          "internalType": "uint256",
          "name": "amount",
          "type": "uint256"
        }
      ],
      "name": "transfer",
      "outputs": [
        {
          "internalType": "bool",
          "name": "",
          "type": "bool"
        }
      ],
      "stateMutability": "nonpayable",
      "type": "function"
    },
    {
      "inputs": [
        {
          "internalType": "address",
          "name": "from",
          "type": "address"
        },
        {
          "internalType": "address",
          "name": "to",
          "type": "address"
        },
        {
          "internalType": "uint256",
          "name": "amount",
          "type": "uint256"
        }
      ],
      "name": "transferFrom",
      "outputs": [
        {
          "internalType": "bool",
          "name": "",
          "type": "bool"
        }
      ],
      "stateMutability": "nonpayable",
      "type": "function"
    }
  ],
  "bytecode": "0x60806040523480156200001157600080fd5b5060405162001a9b38038062001a9b83398181016040528101906200003791906200032b565b818181600390805190602001906200005192919062000209565b5080600490805190602001906200006a92919062000209565b505050620000893369152d02c7e14af68000006200009160201b60201c565b505062000655565b600073ffffffffffffffffffffffffffffffffffffffff168273ffffffffffffffffffffffffffffffffffffffff16141562000104576040517f08c379a0000000000000000000000000000000000000000000000000000000008152600401620000fb90620003d6565b60405180910390fd5b6200011860008383620001ff60201b60201c565b80600260008282546200012c919062000485565b92505081905550806000808473ffffffffffffffffffffffffffffffffffffffff1673ffffffffffffffffffffffffffffffffffffffff168152602001908152602001600020600082825401925050819055508173ffffffffffffffffffffffffffffffffffffffff16600073ffffffffffffffffffffffffffffffffffffffff167fddf252ad1be2c89b69c2b068fc378daa952ba7f163c4a11628f55a4df523b3ef83604051620001df9190620003f8565b60405180910390a3620001fb600083836200020460201b60201c565b5050565b505050565b505050565b828054620002179062000522565b90600052602060002090601f0160209004810192826200023b576000855562000287565b82601f106200025657805160ff191683800117855562000287565b8280016001018555821562000287579182015b828111156200028657825182559160200191906001019062000269565b5b5090506200029691906200029a565b5090565b5b80821115620002b55760008160009055506001016200029b565b5090565b6000620002d0620002ca846200043e565b62000415565b905082815260208101848484011115620002e957600080fd5b620002f6848285620004ec565b509392505050565b600082601f8301126200031057600080fd5b815162000322848260208601620002b9565b91505092915050565b600080604083850312156200033f57600080fd5b600083015167ffffffffffffffff8111156200035a57600080fd5b6200036885828601620002fe565b925050602083015167ffffffffffffffff8111156200038657600080fd5b6200039485828601620002fe565b9150509250929050565b6000620003ad601f8362000474565b9150620003ba826200062c565b602082019050919050565b620003d081620004e2565b82525050565b60006020820190508181036000830152620003f1816200039e565b9050919050565b60006020820190506200040f6000830184620003c5565b92915050565b60006200042162000434565b90506200042f828262000558565b919050565b6000604051905090565b600067ffffffffffffffff8211156200045c576200045b620005ec565b5b62000467826200061b565b9050602081019050919050565b600082825260208201905092915050565b60006200049282620004e2565b91506200049f83620004e2565b9250827fffffffffffffffffffffffffffffffffffffffffffffffffffffffffffffffff03821115620004d757620004d66200058e565b5b828201905092915050565b6000819050919050565b60005b838110156200050c578082015181840152602081019050620004ef565b838111156200051c576000848401525b50505050565b600060028204905060018216806200053b57607f821691505b60208210811415620005525762000551620005bd565b5b50919050565b62000563826200061b565b810181811067ffffffffffffffff82111715620005855762000584620005ec565b5b80604052505050565b7f4e487b7100000000000000000000000000000000000000000000000000000000600052601160045260246000fd5b7f4e487b7100000000000000000000000000000000000000000000000000000000600052602260045260246000fd5b7f4e487b7100000000000000000000000000000000000000000000000000000000600052604160045260246000fd5b6000601f19601f8301169050919050565b7f45524332303a206d696e7420746f20746865207a65726f206164647265737300600082015250565b61143680620006656000396000f3fe608060405234801561001057600080fd5b50600436106100b45760003560e01c806370a082311161007157806370a08231146101a35780637b56c2b2146101d357806395d89b41146101ef578063a457c2d71461020d578063a9059cbb1461023d578063dd62ed3e1461026d576100b4565b806306fdde03146100b9578063095ea7b3146100d757806318160ddd1461010757806323b872dd14610125578063313ce567146101555780633950935114610173575b600080fd5b6100c161029d565b6040516100ce9190610eb3565b60405180910390f35b6100f160048036038101906100ec9190610cde565b61032f565b6040516100fe9190610e98565b60405180910390f35b61010f610346565b60405161011c9190610fd5565b60405180910390f35b61013f600480360381019061013a9190610c8f565b610350565b60405161014c9190610e98565b60405180910390f35b61015d61037f565b60405161016a9190610ff0565b60405180910390f35b61018d60048036038101906101889190610cde565b610388565b60405161019a9190610e98565b60405180910390f35b6101bd60048036038101906101b89190610c2a565b6103bf565b6040516101ca9190610fd5565b60405180910390f35b6101ed60048036038101906101e89190610cde565b610407565b005b6101f7610415565b6040516102049190610eb3565b60405180910390f35b61022760048036038101906102229190610cde565b6104a7565b6040516102349190610e98565b60405180910390f35b61025760048036038101906102529190610cde565b61051e565b6040516102649190610e98565b60405180910390f35b61028760048036038101906102829190610c53565b610541565b6040516102949190610fd5565b60405180910390f35b6060600380546102ac90611105565b80601f01602080910402602001604051908101604052809291908181526020018280546102d890611105565b80156103255780601f106102fa57610100808354040283529160200191610325565b820191906000526020600020905b81548152906001019060200180831161030857829003601f168201915b5050505050905090565b600061033c3384846105c8565b6001905092915050565b6000600254905090565b60008061035b610793565b905061036885828561079b565b610373858585610827565b60019150509392505050565b60006012905090565b600080610393610793565b90506103b48185856103a58589610541565b6103af9190611027565b6105c8565b600191505092915050565b60008060008373ffffffffffffffffffffffffffffffffffffffff1673ffffffffffffffffffffffffffffffffffffffff168152602001908152602001600020549050919050565b6104118282610a9f565b5050565b60606004805461042490611105565b80601f016020809104026020016040519081016040528092919081815260200182805461045090611105565b801561049d5780601f106104725761010080835404028352916020019161049d565b820191906000526020600020905b81548152906001019060200180831161048057829003601f168201915b5050505050905090565b6000806104b2610793565b905060006104c08286610541565b905083811015610505576040517f08c379a00000000000000000000000000000000000000000000000000000000081526004016104fc90610f95565b60405180910390fd5b61051282868684036105c8565b60019250505092915050565b600080610529610793565b9050610536818585610827565b600191505092915050565b6000600160008473ffffffffffffffffffffffffffffffffffffffff1673ffffffffffffffffffffffffffffffffffffffff16815260200190815260200160002060008373ffffffffffffffffffffffffffffffffffffffff1673ffffffffffffffffffffffffffffffffffffffff16815260200190815260200160002054905092915050565b600073ffffffffffffffffffffffffffffffffffffffff168373ffffffffffffffffffffffffffffffffffffffff161415610638576040517f08c379a000000000000000000000000000000000000000000000000000000000815260040161062f90610f75565b60405180910390fd5b600073ffffffffffffffffffffffffffffffffffffffff168273ffffffffffffffffffffffffffffffffffffffff1614156106a8576040517f08c379a000000000000000000000000000000000000000000000000000000000815260040161069f90610ef5565b60405180910390fd5b80600160008573ffffffffffffffffffffffffffffffffffffffff1673ffffffffffffffffffffffffffffffffffffffff16815260200190815260200160002060008473ffffffffffffffffffffffffffffffffffffffff1673ffffffffffffffffffffffffffffffffffffffff168152602001908152602001600020819055508173ffffffffffffffffffffffffffffffffffffffff168373ffffffffffffffffffffffffffffffffffffffff167f8c5be1e5ebec7d5bd14f71427d1e84f3dd0314c0f7b2291e5b200ac8c7c3b925836040516107869190610fd5565b60405180910390a3505050565b600033905090565b60006107a78484610541565b90507fffffffffffffffffffffffffffffffffffffffffffffffffffffffffffffffff81146108215781811015610813576040517f08c379a000000000000000000000000000000000000000000000000000000000815260040161080a90610f15565b60405180910390fd5b61082084848484036105c8565b5b50505050565b600073ffffffffffffffffffffffffffffffffffffffff168373ffffffffffffffffffffffffffffffffffffffff161415610897576040517f08c379a000000000000000000000000000000000000000000000000000000000815260040161088e90610f55565b60405180910390fd5b600073ffffffffffffffffffffffffffffffffffffffff168273ffffffffffffffffffffffffffffffffffffffff161415610907576040517f08c379a00000000000000000000000000000000000000000000000000000000081526004016108fe90610ed5565b60405180910390fd5b610912838383610bf6565b60008060008573ffffffffffffffffffffffffffffffffffffffff1673ffffffffffffffffffffffffffffffffffffffff16815260200190815260200160002054905081811015610998576040517f08c379a000000000000000000000000000000000000000000000000000000000815260040161098f90610f35565b60405180910390fd5b8181036000808673ffffffffffffffffffffffffffffffffffffffff1673ffffffffffffffffffffffffffffffffffffffff16815260200190815260200160002081905550816000808573ffffffffffffffffffffffffffffffffffffffff1673ffffffffffffffffffffffffffffffffffffffff168152602001908152602001600020600082825401925050819055508273ffffffffffffffffffffffffffffffffffffffff168473ffffffffffffffffffffffffffffffffffffffff167fddf252ad1be2c89b69c2b068fc378daa952ba7f163c4a11628f55a4df523b3ef84604051610a869190610fd5565b60405180910390a3610a99848484610bfb565b50505050565b600073ffffffffffffffffffffffffffffffffffffffff168273ffffffffffffffffffffffffffffffffffffffff161415610b0f576040517f08c379a0000000000000000000000000000000000000000000000000000000008152600401610b0690610fb5565b60405180910390fd5b610b1b60008383610bf6565b8060026000828254610b2d9190611027565b92505081905550806000808473ffffffffffffffffffffffffffffffffffffffff1673ffffffffffffffffffffffffffffffffffffffff168152602001908152602001600020600082825401925050819055508173ffffffffffffffffffffffffffffffffffffffff16600073ffffffffffffffffffffffffffffffffffffffff167fddf252ad1be2c89b69c2b068fc378daa952ba7f163c4a11628f55a4df523b3ef83604051610bde9190610fd5565b60405180910390a3610bf260008383610bfb565b5050565b505050565b505050565b600081359050610c0f816113d2565b92915050565b600081359050610c24816113e9565b92915050565b600060208284031215610c3c57600080fd5b6000610c4a84828501610c00565b91505092915050565b60008060408385031215610c6657600080fd5b6000610c7485828601610c00565b9250506020610c8585828601610c00565b9150509250929050565b600080600060608486031215610ca457600080fd5b6000610cb286828701610c00565b9350506020610cc386828701610c00565b9250506040610cd486828701610c15565b9150509250925092565b60008060408385031215610cf157600080fd5b6000610cff85828601610c00565b9250506020610d1085828601610c15565b9150509250929050565b610d238161108f565b82525050565b6000610d348261100b565b610d3e8185611016565b9350610d4e8185602086016110d2565b610d5781611195565b840191505092915050565b6000610d6f602383611016565b9150610d7a826111a6565b604082019050919050565b6000610d92602283611016565b9150610d9d826111f5565b604082019050919050565b6000610db5601d83611016565b9150610dc082611244565b602082019050919050565b6000610dd8602683611016565b9150610de38261126d565b604082019050919050565b6000610dfb602583611016565b9150610e06826112bc565b604082019050919050565b6000610e1e602483611016565b9150610e298261130b565b604082019050919050565b6000610e41602583611016565b9150610e4c8261135a565b604082019050919050565b6000610e64601f83611016565b9150610e6f826113a9565b602082019050919050565b610e83816110bb565b82525050565b610e92816110c5565b82525050565b6000602082019050610ead6000830184610d1a565b92915050565b60006020820190508181036000830152610ecd8184610d29565b905092915050565b60006020820190508181036000830152610eee81610d62565b9050919050565b60006020820190508181036000830152610f0e81610d85565b9050919050565b60006020820190508181036000830152610f2e81610da8565b9050919050565b60006020820190508181036000830152610f4e81610dcb565b9050919050565b60006020820190508181036000830152610f6e81610dee565b9050919050565b60006020820190508181036000830152610f8e81610e11565b9050919050565b60006020820190508181036000830152610fae81610e34565b9050919050565b60006020820190508181036000830152610fce81610e57565b9050919050565b6000602082019050610fea6000830184610e7a565b92915050565b60006020820190506110056000830184610e89565b92915050565b600081519050919050565b600082825260208201905092915050565b6000611032826110bb565b915061103d836110bb565b9250827fffffffffffffffffffffffffffffffffffffffffffffffffffffffffffffffff0382111561107257611071611137565b5b828201905092915050565b60006110888261109b565b9050919050565b60008115159050919050565b600073ffffffffffffffffffffffffffffffffffffffff82169050919050565b6000819050919050565b600060ff82169050919050565b60005b838110156110f05780820151818401526020810190506110d5565b838111156110ff576000848401525b50505050565b6000600282049050600182168061111d57607f821691505b6020821081141561113157611130611166565b5b50919050565b7f4e487b7100000000000000000000000000000000000000000000000000000000600052601160045260246000fd5b7f4e487b7100000000000000000000000000000000000000000000000000000000600052602260045260246000fd5b6000601f19601f8301169050919050565b7f45524332303a207472616e7366657220746f20746865207a65726f206164647260008201527f6573730000000000000000000000000000000000000000000000000000000000602082015250565b7f45524332303a20617070726f766520746f20746865207a65726f20616464726560008201527f7373000000000000000000000000000000000000000000000000000000000000602082015250565b7f45524332303a20696e73756666696369656e7420616c6c6f77616e6365000000600082015250565b7f45524332303a207472616e7366657220616d6f756e742065786365656473206260008201527f616c616e63650000000000000000000000000000000000000000000000000000602082015250565b7f45524332303a207472616e736665722066726f6d20746865207a65726f20616460008201527f6472657373000000000000000000000000000000000000000000000000000000602082015250565b7f45524332303a20617070726f76652066726f6d20746865207a65726f2061646460008201527f7265737300000000000000000000000000000000000000000000000000000000602082015250565b7f45524332303a2064656372656173656420616c6c6f77616e63652062656c6f7760008201527f207a65726f000000000000000000000000000000000000000000000000000000602082015250565b7f45524332303a206d696e7420746f20746865207a65726f206164647265737300600082015250565b6113db8161107d565b81146113e657600080fd5b50565b6113f2816110bb565b81146113fd57600080fd5b5056fea26469706673582212200fc4cddf46fb349b59151fdca14ec26c2c8437d2773a7c7896c98d871c54673264736f6c63430008030033",
  "linkReferences": {},
  "deployedLinkReferences": {}
}